:020000040000fa
:0800000000a404000000000050
:020000040000fa
:080400000040da000000fe00dc
:020000040000fa
:020000040001f9
:0457f8009e430000cc
:020000040000fa
:020000040001f9
:0457fc00603e00000b
:020000040000fa
:1000080000020000000200000002000000020000e0
:1000180000020000000200000002000000020000d0
:1000280000020000000200000002000000020000c0
:1000380000020000000200000002000000020000b0
:020000040000fa
:020000040000fa
:020000040001f9
:104800000f8d2000a606a900a626a800a646a9008e
:10481000a666a800a686a900a6a6a900d106a8009b
:10482000d126a900d146a800d166a900d186a90049
:10483000d1a6a9000006eb0081000700230020009c
:104840002a0220008a000700100cb1000300320089
:104850008301e90076003200f9ff3700900d200057
:104860008e000700400020008c0007003000200070
:104870008a000700b0042000880007000007eb0052
:104880007a000700900188007800070003e1b70074
:104890007600070002e1b7000281bf0080027800c5
:1048a0000002780071000700800678006f000700a2
:1048b0008001780000047800028020006b0007006f
:1048c000005978008301e900fcff3a000e04e00083
:1048d00003003200e004200070000700e7ff37000b
:1048e0000d10a6000f0037003200e2000d003a0064
:1048f0000201e2000b003a000280200040c0b30039
:104900000059780000c0b3000059780040cab300d5
:10491000005978000059eb0000c0b300005978003e
:104920000059eb00028020000d00a70005003700b1
:104930000d10a700050037005005200057000700a4
:10494000ceff3700fcff2f00caff37009101800027
:104950000500780008082000110009004888d800e8
:10496000881420000800e10006003300f81420003d
:104970000040e1000300330000052000470007006d
:10498000beff3700050278000c00a60004003700c7
:10499000850abb00200424001a0007000006eb0073
:1049a00003042000b2cabb00b25abb00b25abb001b
:1049b0008301e900fbff3a0010002400110007000a
:1049c000030420000280200014c0ba003204e10079
:1049d00009003a003440ba003204e10006003a000f
:1049e0003440ba003204e10003003a008301e900d8
:1049f000f5ff3a009fff3700600520002700070001
:104a00009eff3700003b880050052000303b8800a7
:104a1000a00a2000303b880061e7a80000000000e9
:104a20000000000061e7af00feff37000000060055
:104a30000f8d2000080007000221ef006eff3700f5
:104a40003062a80020022000c011880031e2a800d6
:104a50003342a8000000060087c0a90087e0a90033
:104a60003022ef003222ef00000006008a0620000c
:104a70008005eb003202ae0003003700b011800069
:104a800000074700000006008b05e900f9ff3a0027
:104a90000a05e900f6ff3a00e5ff37003322af00d0
:0c4aa000feff370034a2b7000000060043
:020000040000fa
:020000040001f9
:0847f8000000ff000000ff00bb
:020000040000fa
:020000040001f9
:104aac0000080000d0000000000000000000000022
:00000001FF
